:200180009040107408F0904011E4F09040127426F09040217401F09040227401F090402352
:2001A0007401F09040257404F09040267407F090406E7401F0904100E4F09041017489F015
:2001C000904102747FF0904103E4F0904104744EF090410574BDF0904106E4F0904107F0D0
:2001E000904108F09041097480F090410A7402F090410B747FF090410CE4F090410D74A6CF
:20020000F090410E74FFF090410F745AF0904115E4F090411774F4F09041207498F0904156
:20022000217476F09041247499F09041257493F09041267483F0904127740FF0904128742E
:200240001FF0904129740BF090412A740BF090412B7446F090412CE4F090412DF090412E58
:20026000F090412FF09041307498F09041317476F0904132E4F0904133F09041347497F0FA
:200280009041357492F09041367483F0904137740FF0904138741FF0904139740BF0904123
:2002A0003A740BF090413B7446F090413CE4F090413D7438F090413EE4F090413FF09041A0
:2002C0005074FFF09041517476F0904152E4F0904153F09041547496F09041557491F0909A
:2002E00041567483F0904157740FF0904158741FF0904159740DF090415A740DF090415BD6
:200300007446F090415CE4F090415D7438F090415EE4F090415FF09041607403F09041617B
:20032000E4F0904162F090416374AFF09041647405F0904165E4F09041667401F090416703
:2003400074A3F090416A740FF090416B74FFF09041837405F0904188740FF090418974777B
:20036000F09042007401F09042017480F0904202E4F090420374C8F090421074AAF0904234
:200380001174CCF090421274AAF090421374CCF0904214741FF0904216741FF090421874E3
:2003A00055F09042197455F090421C748AF090421E740AF0904223745BF0904224743EF0CE
:2003C000904225749CF09042267432F0904227E4F09042287408F090422A7435F090422CD2
:2003E0007419F090422D74C6F090422E7402F090422FE4F0904230740DF09042317403F03F
:200400009042337420F0904330E4F0904331F0904332F0904F107404F0904F11E4F0904F99
:200420001C7407F0904F21745CF0904F227453F0904F237476F0904F267492F0904F34745F
:2004400008F0904F357411F0904F447424F0229040307407F09040317412F09040327420D6
:20046000F09041807496F0904184E4F0904F00740FF0904F0D7403F0904F187406F0229060
:2004800040307407F09040317408F09040327420F09041807496F0904184E4F0904F0074C7
:2004A0000FF0904F0D7403F0904F187406F022AC82AD83AEF0A2E713FFEE13FEED13FDECE8
:2004C00013FCF88D018E02EFFBA2E713FFEE13FEED13FDEC13FCEFA2E713FFEE13FEED13F2
:2004E000FDEC13FCE8C39CF8E99DF9EA9EFAEB9FFBEFA2E713FFEE13FEED13FDEC13FCEFCF
:20050000A2E713FFEE13FEED13FDEC13FCE8C39CF8E99DF9EA9EFAEB9F888289838AF022CD
:20052000AC82AD83AEF0FFC3E49CF8E49DF9E49EFAE49FFBEC2CFCED33FDEE33FEEF33FFA0
:20054000EC2CFCED33FDEE33FEEF33FFEC28F8ED39F9EE3AFAEF3BFBEDC403CCC403540716
:200560006CCC5407CC6CCCFDEEC40354F84DFDEFC403CEC40354076ECE5407CE6ECE30E243
:200580000244F8FFE8C39CF8E99DF9EA9EFAEB9F888289838AF022AC82AD83AEF0FFEDA218
:2005A000E7CC33CC33A2E7CC33CC33CC5403FDEE2E25E04DFDEFA2E7CE33CE33A2E7CE3340
:2005C000CE33CE540330E10244FCFF8C008D018E02EFFBA2E713FFEE13FEED13FDEC13FC7D
:2005E000EFA2E713FFEE13FEED13FDEC13FCE8C39CF8E99DF9EA9EFAEB9FFBEFA2E713FF2B
:20060000EE13FEED13FDEC13FCEFA2E713FFEE13FEED13FDEC13FCE8C39CF8E99DF9EA9E1C
:20062000FAEB9FFBEDC423CCC423541F6CCC541FCC6CCCFDEEC42354E04DFDEFC423CEC4DA
:2006400023541F6ECE541FCE6ECE30E40244E0FFEC28F8ED39F9EE3AFAEF3B888289838AFB
:20066000F02222C065858165D06522C065858165AE82AF837D0074FFC0E0C0E0E56524FCD3
:20068000F8E6C0E008E6C0E08E828F838DF0127812AE82AF83E58124FCF581E4BE0104BF4F
:2006A000B00104F582D06522C065858165AE82AF838E038F047D00C007C00674FFC0E0C0C4
:2006C000E0E56524FCF8E6C0E008E6C0E08B828C838DF0127812AC82AD83E58124FCF58135
:2006E000D006D007E56524FCF8E62EFE08E63FFF8C03EBF48E828F83F0A3AE82AF838D0497
:16070000ECF48E828F83F0E56524FCF88682088683A3A3D06522D9
:20884100000B55550D13DFDD0D1367660E13EFEE0E1377770F1301001013898810131111F0
:2088610011139B99111323221213ABAA121307070707070707070707077D0700002019C6C7
:2088810007000000004C00010040000000200055380000050201030000FF0020CCAACCAA80
:2088A10018005B0000003901000000FF01800000800000310000000080010000005A0000FE
:2088C100002C01E4070B03790900006A0900006F0A0000AE090000900900009A0B00006EA0
:0388E10010000084
:20071600AE82AF83E4F08E828F83A3E4F022AE82AF83A3E0FD8E828F83E0FCEDB5040280CA
:200736001F74022EFBE43FFD8C017A00E92BF582EA3DF583E0FD0C8E828F83ECF08D82227C
:200756007582002285826785836874012567FCE43568FD8C828D83E0FBF97A0009B90001E2
:200776000A856782856883E0F87F00E9B50006EAB50702802774022567FEE43568FF7A0037
:20079600EB2EF582EA3FF583E566F08C828D83E0FF0F8C828D83EFF075820122758200229B
:2007B600AE82AF837D00C3ED950A5027ED2508F582E43509F583E0F5668E828F83C007C06F
:2007D60006C00512075AE582D005D006D00760030D80D38D8222AE82AF83E0FD8E828F8387
:2007F600A3E0FFEDC39F14F58222AE82AF83A3E0FD8E828F83E0FEEDC39EF5822285820E87
:2008160085830F7401250EFCE4350FFDAA0BAB0CA90D8C828D83E0F8850E82850F83E0FFBF
:20083600E8B5070122E9602D850E82850F83C005C004C003C002C001120724AF82D001D05B
:2008560002D003D004D0058A828B83EFF0A3AA82AB831980BD22858213858314E0FD74010E
:200876002513FBE43514FC8B828C83E0FAC39D403EEAC39DF515C3E512951550038512157B
:20089600A810A9117A0074022513FEE43514FFED2EFEE43FFF8E668F677568008515697504
:2008B6006A00888289838AF01273B0851582228D07C3E49FF516C3E512951650038512166B
:2008D600A910AA117E0074022513F8E43514FFED28F8E43FFF88668F6775680085166975D5
:2008F6006A0089828A838EF0C004C0031273B0D003D004E512C39516F512E5162510F510DE
:20091600E43511F5118B828C83E0FFC3951250028F12AD10AE117F0074022513FBE4351468
:20093600FC8B668C67756800851269756A008D828E838FF01273B0E5122516F58222AE8236
:20095600AF83E0FD8E828F83A3E0FFC39D4018E5669DB3E433FE6006C3E5669F40047E0091
:2009760080027E018E8222C3E5669DB3E433FD700AC3E5669F40047F0080027F018F82229D
:20099600AE82AF83E0FD74022EFBE43FFC0EBE00010F8E828F83E0FAEDB50201228D017A9D
:1A09B60000E92BF9EA3CFA89828A83E0F8B5660789828A83E567F00D80D82F
:0488E400B80BEC0AD7
:060126007517E87518884A
:2009D000027EDB900016E0FFBF03005006900016EF04F09000177402F0900016E02430900F
:2009F0000825F09008277430F09008287432F090082375F000027EDBE582FF23235403FEA5
:200A10000E0E900016EEF0743F5F2402FF900017F074302E900825F075F00AEF8424309013
:200A30000827F075F00AEF84AFF074302F900828F090082375F000027EDBAD82AE83AFF009
:200A50008D828E838FF012852CFC60188C82C007C006C005120A75D005D006D0070DBD0073
:200A7000DF0E80DC22AF82BF0A030209D38F8202791BC065858165120A08E56524FDF8E67C
:1A0A900070028013E56524FDF88607758220C007120A75D007DFF4D06522E7
:0188E800008F
:0892D5001B5BFF3BFFFF66007D
:06012C00751900751A00B0
:200AAA0022748055A8FFC2AFC007128675AB82AC83ADF0FED00790002AEBF0A3ECF0A3ED63
:200ACA00F0A3EEF0904059127570AB82AC83ADF0FE90002EEBF0A3ECF0A3EDF0A3EEF0EF7C
:200AEA0042A822AC82AD83AEF0FF90002EE0F8A3E0F9A3E0FAA3E0FBECC398FCED99FDEE24
:200B0A009AFEEF9B8C828D838EF0128548120597AC82AD83AEF0FF90002AE0F8A3E0F9A3D4
:200B2A00E0FAA3E0FBE82CFCE93DFDEA3EFEEB3F8C828D838EF02212044F90001DE0240BF1
:200B4A00F582E43400F583E0FF30E50475820622904030E0FE30E70990403B740F5FF08012
:200B6A0007904033740F5FF07582002212047F90001DE02400F582E43400F583E0FF30E535
:200B8A000475820622904030E0FE30E70990403B740F5FF08007904033740F5FF0758200FA
:200BAA002290400FE0FF30E24090401CE0FEBE0F38120AAB9088A2E493FE602D900268129B
:200BCA00806390026DE4F090002EE0FBA3E0FCA3E0FDA3E0FE90026EEBF0A3ECF0A3EDF062
:200BEA00A3EEF090026812740590400DE0FE20E00122904029E0FE74E05EFDC4035407FF60
:200C0A00BF0706904029E0FDFF53061FBE0102801BBE1003020DDBBE1103020DAEBE130337
:200C2A00020D71BE1503020E04020E7AEF60BA904029E01FC007C00790014275F000127D60
:200C4A00641581D0077419B519028005741BB51921904F30E090082BF0904F31E090082C03
:200C6A00F0904F32E090082DF0904F33E0FE90082EF07419B5190280057422B51905904013
:200C8A0002E4F0904007E054FEF0900246C007128063D00790024BE4F09002627442F0A322
:200CAA007401F0741CB51902800C741DB519028005741EB5195F9002647442F0A37401F090
:200CCA008F057E00900266EDF0A3EEF0904040E0FE3395E0FD90887EE493FC3395E0FBEE75
:200CEA00C39CFEED9BFD900250EEF0A3EDF090404D127570128424AB82AC83ADF0FE900271
:200D0A0052EBF0A3ECF0A3EDF0A3EEF0900246127405020BF3908894E493FE2442FCE4341E
:200D2A0001FD900264ECF0A3EDF0C3EF9E500A900266E4F0A3F0020BF3EFC39EFD7E0090F5
:200D4A000266EDF0A3EEF09002461274057422B51902800A7423B519028003020BF39002F4
:200D6A009D127DB8020BF3BF03028003020E7A904029E0FE53060F74085EF4FD0DED420668
:200D8A008E05ED3395E0FD900255F0900254EEF0904029E0900253F0904029E0FE90025220
:200DAA00F0020BF3BF01028003020E7A904029E0FE3395E0FD90887EE493FC3395E0FBEE54
:200DCA00C39CFEED9BFD900250EEF0A3EDF0020BF3BF03028003020E7A90024FE4F0904091
:200DEA0029E090024EF0904029E090024DF0904029E0FE90024CF0020BF3EF7003020BF361
:200E0A00C007120AAB900272128063900277E4F0904029E0FEFC3395E0FD90887EE493FBE4
:200E2A003395E0FAECC39BFCED9AFD90027CECF0A3EDF0908880E493FDC3EE64808DF06351
:200E4A00F08095F0B3E43390027EF090002EE0FBA3E0FCA3E0FDA3E0FE900278EBF0A3EC3C
:200E6A00F0A3EDF0A3EEF0900272127405D0071FEF7003020BF3904029E0DFFA020BF3904E
:200E8A00402DE0FF90402CE0FE60027FFFAE1ABE0A02800FBE0B03020F59BE0C0302112BE0
:200EAA000211C190001BE0FDA3E0FE4D704C751A0B7411B51902801A7413B519028013745B
:200ECA0019B51902800C741BB5190280057430B5191490888AE493FB740193FC90001BEB7B
:200EEA00F0A3ECF0806990888EE493FB740193FC90001BEBF0A3ECF08055BF040050030282
:200F0A0011D1C3ED9407EE940050048D0780027F078F057E0090001BE0FBA3E0FC90001B66
:200F2A00EBC39DF0EC9EA3F0EFC42354E0FF9040297462F0908891E493904029F090402985
:200F4A00EFF0908890E493FE904029F0020E8990001BE0FDA3E0FE4D600302103BBF0F0035
:200F6A0050030211D1908892E493FC606F9040297441F0741CF0908893E493FBFF90420038
:200F8A00E0FA30E7267408C39CF5F005F074FF800225E0D5F0FBFA52078CF005F074808089
:200FAA0002C313D5F0FBFA4207802C8C027B007408C39AFAE49BFB8AF005F074FF8002C323
:200FCA0013D5F0FBFA52078CF005F07401800225E0D5F0FBFC4207904029EFF0904012E0D5
:200FEA00FC53040EBC064490889CE493FC603CEC540760047B0480027B0074072CC42354B4
:20100A001FFC90402974E1F0EC04F09088A1E493FA904029EB4AF07B00C3EB9C500DEB90A8
:20102A00889D93FA904029F00B80EE751A0C020E89BF040050030211D17FFFC3ED94F8EEBC
:20104A0094075012EEC423CDC423541F6DCD541FCD6DCDFE8D07EF60468F05E4C40354F827
:20106A00CDC403CD6DCD54F8CD6DFE90001BE0FBA3E0FC90001BEBC39DF0EC9EA3F090406F
:20108A00297462F0908891E493904029F0904029EFF0908890E493FE904029F0020E899047
:2010AA008890E493FE90001BE0FCA3E08C0790001BE4F0A3F09040297441F0741CF09042FA
:2010CA0000E0FD30E7277408C39FFD8DF005F074FF800225E0D5F0FBFD52068FF005F074A7
:2010EA00808002C313D5F0FBFD4206802C8F047D007408C39CFCE49DFD8CF005F074FF8094
:20110A0002C313D5F0FBFC52068FF005F07401800225E0D5F0FBFD4206904029EEF0020E7D
:20112A0089BF0B0050030211D17E0090001BE0FCA3E0FD4C70027E0190001BE0FCA3E0FD52
:20114A00900019E0FAA3E0FBEAC39CFCEB9DFD1F1F1F8F027B00C3EA9CEB9D40058C074365
:20116A000602EF605390402974E1F0EF04F0904029EEF090001BE0FCA3E0FDEC243EFCED85
:20118A003400FD7B00C007C006C0078C828D838BF012812D1581D006D0077D0090001BE0A1
:2011AA00FBA3E0FC90001BEF2BF0ED3CA3F0EE20E103020E89800122751A0D904009740122
:2011CA00F09040077440F09040287404F022C023C0E0C0F0C082C083C007C006C005C0044A
:2011EA00C003C002C001C000C0D075D000E51AFF24EF5003021233EFF5F0240A83C0E0E555
:20120A00F0241483C0E0223390563F334A33553360F1F1F1F72D72991215151212121212CF
:20122A00121212121212141414904006E4F0904007F0021593904006E4F0751A04021593FA
:20124A00904006E4F0751A06021593904009E4F0751A0802159390400FE09040287403F08F
:20126A00904006E4F09040077408F0751A0A904010E0FF53070FBF090F90402974E1F0742D
:20128A0002F07401F07411F0120E89904002740DF0120AAB90027F128063AF19BF120280A4
:2012AA0003BF1319900022E0FF9088ABE493FEEFB5060280089002847408F080059002841C
:2012CA00E4F090002EE0FCA3E0FDA3E0FEA3E0FF900285ECF0A3EDF0A3EEF0A3EFF090020B
:2012EA007F127405021593120E8902159390400FE090401CE0FF6003021593904009E4F099
:20130A00AF19BF1202806BBF13028066BF18028022BF1902803ABF1A028020BF1B02803D60
:20132A00BF20030213B0BF2102803ABF300280030213BD120B761215B0807B90024BE0FFF9
:20134A00BFF008120B761215B0806B12170C8066120B7612165190024BE4F08059120B7633
:20136A0012165180519088ADE493FF900019F0A3E4F0120B761215B090029D127DB89088D6
:20138A00A3E493FC740193FD740293FE740393FF9002A1ECF0A3EDF0A3EEF0A3EFF09002F4
:2013AA009D12741F80109088ADE493FF900019F0A3E4F01217037420B51902801A7421B592
:2013CA00190280137422B51902800C7423B519028005900018E4F0120AAB90028912806324
:2013EA0090028EE4F07412B51902800C7413B5190280057421B5190690028E7402F09000B2
:20140A002EE0FCA3E0FDA3E0FEA3E0FF90028FECF0A3EDF0A3EEF0A3EFF09002891274050F
:20142A00021593904006E4F0904007F0904002740DF0751A00120AAB90027F128063900256
:20144A0084E4F090002EE0FCA3E0FDA3E0FEA3E0FF900285ECF0A3EDF0A3EEF0A3EFF09007
:20146A00027F12740502159390400CE0FF20E00302150F9040097403F0904006E4F090400E
:20148A00077440F0904002740DF0751A10807690400FE0FF54036007C007120AABD007EFEF
:2014AA0030E031900289C00712806390028EE4F090002EE0FBA3E0FCA3E0FDA3E0FE90026B
:2014CA008FEBF0A3ECF0A3EDF0A3EEF0900289127405D007EF30E12D90027F1280639002D6
:2014EA0084E4F090002EE0FCA3E0FDA3E0FEA3E0FF900285ECF0A3EDF0A3EEF0A3EFF09067
:20150A00027F12740590400DE0FF904007E0FE5F30E376904007E054F7F0120AAB9002937E
:20152A00128063900298E4F090002EE0FCA3E0FDA3E0FEA3E0FF900299ECF0A3EDF0A3EE79
:20154A00F0A3EFF0900293127405803D90400CE0FF30E00A90400AE0FF4401F08028904067
:20156A000AE054FEF090082BE0904F30F090082CE0904F31F090082DE0904F32F090082E83
:20158A00E0FF904F33F0120BABD0D0D000D001D002D003D004D005D006D007D083D082D0E7
:2015AA00F0D0E0D023327423B5190474018001E4FF9088A2E493FE42077422B519047401C5
:2015CA008001E4FE4207EF60069040097404F090887FE493FE90422CF07418B519028021C8
:2015EA007430B51902801A741AB519028013741CB51902800C741DB519028005741EB519B0
:20160A0013908887E493904229F0904232E0FE4440F0800D904229E4F0904232E0FE54BF05
:20162A00F09040287403F09040027409F0751A01EF60089040077441F080069040077401DD
:20164A00F0904006E4F02290422E7402F09088A2E493FF60069040097404F0904028740318
:20166A00F09043107401F0908886E493904229F090887FE493FE90422CF0904002740BF0ED
:20168A00751A02EF60089040077441F080069040077401F09040067401F09088AEE493FEA4
:2016AA00740193FFFD90406CEDF08E0590406DEDF090406812772EAC82AD83EC2EFEED3FC5
:2016CA00FD90406AEDF090406BEEF0229040027405F07407F0120B4190402EE4F090402FDC
:2016EA007480F0751A09904007E4F09040067401F090400AE054FEF02212170C904002E475
:20170A00F022904007E4F0904006F09040027405F0904310E4F0751A0022748055A8FFC2E7
:20172A00AF751A03904006E0FE4401F0C2AF7404B51A028011758202C007127308D2AF124A
:20174A007287D00780E6EF42A822748055A8FFC2AF900018E0FE6011758202C007127308A9
:20176A00D2AF127287D00780E6EF42A822900032E0904207F0900033E0904206F090003401
:20178A00E0904205F0900035E0904204F0900036E090420BF0900037E090420AF09000387F
:2017AA00E0904209F0900039E0904208F0908841E493FF700122908895E493FF7001227E6B
:2017CA00FF7F01904011E0FD530501C3E49DFD908896E493FCBCFF028025E40354F8CCC4E2
:2017EA0003CC6CCC54F8CC6CFBC005C004C0039001FF128290AE82AF8315811581D0057C7A
:20180A0000ED6EFAEC6FFB904207E079006202E96203904207EAF08E828F83C005C00412BF
:20182A0083F0AE82AF83D004D005ED6EFAEC6FFB904206E079006202E96203904206EAF0E0
:20184A008E828F83C005C0041283F0AE82AF83D004D005ED6EFAEC6FFB904205E079006206
:20186A0002E96203904205EAF08E828F83C005C0041283F0AE82AF83D004D005ED6206ECE1
:20188A006207904204E07C006206EC6207904204EEF022120180908841E493FF600C904270
:2018AA0002E0FF90420274022FF09040247403F09042327415F0021777AC82AD83AEF0FF71
:2018CA00900024E0F8A3E0F9A3E0FAA3E0FB900024EC28F0ED39A3F0EE3AA3F0EF3BA3F012
:2018EA0022AC82AD83AEF0FF900024E0F8A3E0F9A3E0FAA3E0FB900024E8C39CF0E99DA3AA
:20190A00F0EA9EA3F0EB9FA3F022AC82AD83AEF0FF900024E0F8A3E0F9A3E0FAA3E0FB90E5
:20192A0002A1E8F0A3E9F0A3EAF0A3EBF0E8C39CFCE99DFDEA9EFEEB9FFF9002A1ECF0A324
:20194A00EDF0A3EEF0A3EFF02290024CE0FCA3E0FDA3E0FEA3E08C828D838EF0120AEDACEC
:20196A0082AD83AEF0FF900024E0F8A3E0F9A3E0FAA3E0FBECC398FCED99FDEE9AFEEF9B35
:20198A00FF8C028D03900256EAF0A3EBF0900028E0FAA3E0FB9088C4E493C0E0740193C015
:2019AA00E08A828B83127BDEAB8215811581EB704B8C828D838EF0EFC007C006C005C00418
:2019CA001218C3D004D005D006D007EFC42354E0CEC423CE6ECE54E0CE6EFFEDC423541F3B
:2019EA004EFEEDC42354E0CCC423CC6CCC54E0CC6CFD900028ECF0A3EDF08048900028E0F5
:201A0A00FAA3E0FB8A00EBF93395E0FAFBEC28F8ED39F9EE3AEF3B900028E8F0A3E9F0EFC1
:201A2A00A2E713FFEE13FEED13FDEC13FCEFA2E713FFEE13FEED13FDEC13F5828D838EF080
:201A4A00EF1218C3900028E0FEA3E0FF9088C4E493C0E0740193C0E08E828F83127CB6AED9
:201A6A0082AF8315811581900028EEF0A3EFF0229088B0E493FC740193FD740293FE740384
:201A8A00938C828D838EF01218C3900028E0FEA3E0FF9088C4E493C0E0740193C0E08E825D
:201AAA008F83127BDEAF8215811581EF700122900028E0FEA3E0FFC403CEC40354076ECEB5
:201ACA005407CE6ECE30E20244F8FF3395E0FD8E828F838DF00218C3AF19BF10005001221D
:201AEA00EF24CF500122EF24F0FF240983C0E0EF242483C0E022EBEB7070F4F4F4F44242AF
:201B0A00D1D1424242F467670505F4F4F4F4F4F4F4F4F4F4F4F4421B1B1C1C222222221BC4
:201B2A001B1C1C1B1B1B221D1D1F1F2222222222222222222222221B900018E0FFBF02035F
:201B4A00021BEB900018E0FFBF0103021BEB90029D127DB8908881E493FE740193FF7D0019
:201B6A007C009002A1EEF0A3EFF0A3EDF0A3ECF090029D12741F120AAB9002721280639029
:201B8A000277E4F0904040E0FFFD3395E0FE90887EE493FC3395E0FBEDC39CFDEE9BFE9050
:201BAA00027CEDF0A3EEF0908880E493FEC3EF64808EF063F08095F0B3E43390027EF0906C
:201BCA00002EE0FCA3E0FDA3E0FEA3E0FF900278ECF0A3EDF0A3EEF0A3EFF090027202748B
:201BEA0005900022E0FF6006EF14900022F090029D127DB8904040E0FF908880E493FEC305
:201C0A00EF64808EF063F08095F0400F900022E0FF7014908885E493FE600C900018740211
:201C2A00F01216D6021B80EF6003021B5E120AAB900018E4F012170390027F12806390023B
:201C4A00847403F090002EE0FCA3E0FDA3E0FEA3E0FF900285ECF0A3EDF0A3EEF0A3EFF0FC
:201C6A0090027F027405900018E0FFBF0103021BEB121703900022E0FF7031120AAB9002C5
:201C8A008912806390028E7403F090002EE0FBA3E0FCA3E0FDA3E0FE90028FEBF0A3ECF0A1
:201CAA00A3EDF0A3EEF0900289027405EF14900022F090888CE493FE740193FF90001BEE25
:201CCA00F0A3EFF00216D6900018E0FFBF0103021BEB9040287403F0904002740DF09040D6
:201CEA0003E0FF30E3F8120B4190400FE090402EE4F090402F7480F0751A0A90888CE49367
:201D0A00FE740193FF90001BEEF0A3EFF0904010E0FF53070FBF090F90402974E1F07402F6
:201D2A00F07401F07411F09040077408F0120AAB90027F128063900284E4F090002EE0FC3B
:201D4A00A3E0FDA3E0FEA3E0FF900285ECF0A3EDF0A3EEF0A3EFF090027F0274059000184C
:201D6A00E0FFBF04028059BF0503021EA59040027405F0120B419000187404F09002931270
:201D8A008063900298E4F0900299F0A3E4F0A3F0A3F090029312740590029D127DB89000EA
:201DAA0024E0FCA3E0FDA3E0FEA3E0FF9002A1ECF0A3EDF0A3EEF0A3EFF090029D0274E778
:201DCA009040287403F0904002740DF0904003E0FF30E3F890400FE090402EE4F090402F0A
:201DEA007480F0751A0A90888CE493FE740193FF90001BEEF0A3EFF0904010E0FF53070F09
:201E0A00BF090F90402974E1F07402F07401F07411F090029D127DB8120AAB9040077408D3
:201E2A00F09088B0E493FC740193FD740293FE7403938C828D838EF01218C39000187405AD
:201E4A00F07421B5190280269000187403F09088B4E493FC740193FD740293FE7403938C8D
:201E6A00828D838EF012191490029D1274E790027F128063900284E4F090002EE0FCA3E060
:201E8A00FDA3E0FEA3E0FF900285ECF0A3EDF0A3EEF0A3EFF090027F02740512170390007A
:201EAA00187403F090029D127DB89088B4E493FC740193FD740293FE7403938C828D838E22
:201ECA00F012191490029D1274E7120AAB90028912806390028E7403F090002EE0FCA3E0B2
:201EEA00FDA3E0FEA3E0FF90028FECF0A3EDF0A3EEF0A3EFF0900289027405900018E0FF3B
:201F0A0024F3402EEF2F2F901F1573021F3C021F3C021F3C021F3C021F3C021F3C021F3C23
:201F2A00021FC70220550220A70221580221B00222C51217039000187407F09088C0E493AA
:201F4A00FC740193FD740293FE7403938C828D838EF01218C390029D127DB8900024E0FCD6
:201F6A00A3E0FDA3E0FEA3E0FF9002A1ECF0A3EDF0A3EEF0A3EFF090029D1274E7900246CE
:201F8A0012806375660075671E75680090024A75F00012739190002EE0FCA3E0FDA3E0FE9E
:201FAA00A3E0FF90024CECF0A3EDF0A3EEF0A3EFF090024B740AF09002460274051215B0E3
:201FCA009000187406F09088B8E493FC740193FD740293FE7403938C828D838EF01218C303
:201FEA0090029D127DB8900024E0FCA3E0FDA3E0FEA3E0FF9002A1ECF0A3EDF0A3EEF0A39B
:20200A00EFF090029D1274E7120AAB90024612806375660075671E75680090024A75F000B4
:20202A0012739190002EE0FCA3E0FDA3E0FEA3E0FF90024CECF0A3EDF0A3EEF0A3EFF09096
:20204A00024B7409F09002460274059040027405F09000187409F090029D127DB89002A170
:20206A00E0FCA3E0FDA3E0FEA3E0FF9088B4E493F8740193F9740293FA740393FBE82CFCA3
:20208A00E93DFDEA3EFEEB3FFF9002A1ECF0A3EDF0A3EEF0A3EFF090029D0274E71215B0CF
:2020AA00900018740AF0120AAB90024612806375660075671E75680090024A75F0001273F4
:2020CA009190002EE0FCA3E0FDA3E0FEA3E0FF90024CECF0A3EDF0A3EEF0A3EFF090024B2E
:2020EA00740BF090024612740590029D127DB8900023E0FF9088C7E493FEC3EF9E4003EE27
:20210A0014FF9002A1E0FBA3E0FCA3E0FDA3E0FEEF75F004A424D4F582748835F0F583E42C
:20212A0093F8A3E493F9A3E493FAA3E493FFE82BFBE93CFCEA3DFDEF3EFE9002A1EBF0A39B
:20214A00ECF0A3EDF0A3EEF090029D0274E790401CE0F4FF540F6002804C900018740BF0A5
:20216A0090029D127DB89002A1E0FCA3E0FDA3E0FEA3E0FF9088E0E493F8740193F974026F
:20218A0093FA740393FBE82CFCE93DFDEA3EFEEB3FFF9002A1ECF0A3EDF0A3EEF0A3EFF08F
:2021AA0090029D0274E7121703900023E0FF70069000237401F0900023E02401F0120AABCE
:2021CA0090024612806375660075671E75680090024A75F00012739190002EE0FCA3E0FD05
:2021EA00A3E0FEA3E0FF90024CECF0A3EDF0A3EEF0A3EFF090024B7403F0900023E0FF902F
:20220A0088C6E493FEC39F4054900246127405121A7A9000187408F090029D127DB89000D8
:20222A0023E0FF9088C7E493FEC3EF9E4003EE14FFEF75F004A424C8F582748835F0F583B2
:20224A00E493FCA3E493FDA3E493FEA3E4938C828D838EF012191490029D0274E790024B74
:20226A007409F09002461274051215B09000187406F090029D127DB89088B8E493FC74016D
:20228A0093FD740293FE740393FF9002A1ECF0A3EDF0A3EEF0A3EFF090029D12741F90029C
:2022AA00A1E0FCA3E0FDA3E0FEA3E0FF900024ECF0A3EDF0A3EEF0A3EFF0229000187408BB
:2022CA00F090029D127DB89088CCE493FCA3E493FDA3E493FEA3E4938C828D838EF0121927
:2022EA001490029D1274E7021CDC22AE82AF8374042EFEE43FFF8E828F830267FF90024B79
:20230A00E0600690024A0267FF908841E493FF70030223D7741CB519030223D7741DB5192F
:20232A00030223D7741EB519030223D7900266E0FEA3E0FFC3EE9402EF940050030227ECAB
:20234A00908894E4937C002EFEEC3FFF904011E0FD530501C3E49DFD900262E0FBA3E0FCD8
:20236A007A00C007C006C00574FFC0E07401C0E0C006C0078B828C838AF0127597E5812494
:20238A00FBF581D006D007900262E0FCA3E0FD7B0074FFC0E0C0E0C006C0078C828D838B61
:2023AA00F01281ACAE82AF83E58124FCF581EE4F60030227EC900266E0FEA3E0FFEE24FE69
:2023CA00FEEF34FFFF900266EEF0A3EFF0900256E4F0A3F0900258F0A3E4F07412B5190286
:2023EA00800C7413B5190280057421B5196012170390029D127DB87421B519269000187461
:20240A0003F09088B4E493FC740193FD740293FE7403938C828D838EF012191490029D124E
:20242A0074E790028912806390028EE4F0904059127570AC82AD83AEF0FF90028FECF0A378
:20244A00EDF0A3EEF0A3EFF0900289127405908896E493FFBFFF028029900262E0FDA3E00B
:20246A00FEEF2DFFE43EFC8F668C67756800908895E493FF8F69756A0090025E75F00012F5
:20248A0073B0908897E493FFBFFF028029900262E0FDA3E0FEEF2DFFE43EFC8F668C677599
:2024AA006800908895E493FF8F69756A0090025A75F0001273B0741AB519028011741BB5F7
:2024CA001902800A7423B519028003022702900022E4F0908894E493FFFD7E009088ADE46C
:2024EA0093FC7B00900019EC2DF0EB3EA3F08F6775680075660090003E75F00012739190D3
:20250A0088ACE493FFBFFF028035900262E0FDA3E0FEEF2DF582E43EF583E0FEEF243EF5EF
:20252A0082E43400F583EEF0900023E0FFB506028007900023EEF0800690024B7408F090DB
:20254A008896E493FFBFFF02805B908897E493FEBEFF028029EF243EFDE43400FE7C007561
:20256A00665A756702756800908895E493FB8B69756A008D828E838CF01273B08027EF2459
:20258A003EFFE43400FE7D0075663A756700756800908895E493FC8C69756A008F828E837D
:2025AA008DF01273B0908897E493FFBFFF028027EF243EFFE43400FE7D0075663275670007
:2025CA00756800908895E493FC8C69756A008F828E838DF01273B090889AE493FF60309004
:2025EA000019E0FDA3E0908899E493FEEDC39E5FFE908898E493243EFDE43400FC8D828C52
:20260A0083E0FBEFF4FF5B42068D828C83EEF0908841E493FF70030226B674FFC0E0C0E0FE
:20262A00900019E0C0E0A3E0C0E090003E75F0001281ACAE82AF83E58124FCF581900019CB
:20264A00E0FCA3E0FD90001974012CF0E43DA3F0EC243EF582ED3400F5838F05EDF09000C7
:20266A0019E0FCA3E0FD90001974012CF0E43DA3F0EC243EF582ED3400F583EEF0904011D0
:20268A00E0FF530701C3E49FFFC00774FFC0E07401C0E0900019E0C0E0A3E0C0E090003EA8
:2026AA0075F000127597E58124FBF581904006E4F0904007F09040027405F0904028740377
:2026CA00F0751A0A904003E0FF20E3F890029D127DB89088A7E493FC740193FD740293FE06
:2026EA00740393FF9002A1ECF0A3EDF0A3EEF0A3EFF090029D1274667422B51902800A74B6
:20270A0023B5190280030227E67423B519028003121703900018E0FFBF08028045BF0A0234
:20272A008040BF0B02803B90024CE0FCA3E0FDA3E0FEA3E08C828D838EF0120AEDAC82AD8A
:20274A0083AEF0FF900024ECF0A3EDF0A3EEF0A3EFF0900028E4F0A37480F0900023E4F0A2
:20276A00802D121953900028E0FEA3E0FFC403CEC40354076ECE5407CE6ECE30E20244F864
:20278A00FF900258EEF0A3EFF09000237401F0121A7A7423B51902803D9000187408F09060
:2027AA00029D127DB8900023E075F004A424C8F582748835F0F583E493FCA3E493FDA3E47C
:2027CA0093FEA3E4938C828D838EF012191490029D1274E78006900018740CF090024A1241
:2027EA0067FF7419B51903021651741AB519028005741BB51920748055A8FFC2AFAE1A9089
:20280A00024B74F0F0EF42A8EE701D741BB519030216510215B0AF1ABF01028003BF020852
:20282A00904007E0FF4401F02290024612806390026812806390027212806390027F128029
:20284A006390028912806390029312806390029D027DB87519001228339002487407F0A398
:20286A007423F090024AE4F075660075670475680090025A75F0001273917566007567045D
:20288A0075680090025E75F00012739190026A74F5F0A37422F090026C7401F0900274748B
:2028AA00F5F0A37422F09002767402F090028174F5F0A37422F09002837403F090028B74F0
:2028CA00F5F0A37422F090028D7404F090029574F5F0A37422F09002977405F090029F7479
:2028EA00E2F0A3741AF090001DE4F090001EF0A3E4F0A3F0A3F0C2AC751A00126D77E582C5
:20290A0060047582052212189D12047F904030E0FF904031E0FE9040307409F0904031742F
:20292A0008F0D2AC9040027405F0C007C006121724D006D0077D00908842E493FCC3ED9CBF
:20294A004003022A07ED75F004A42443F582748835F0F583E493F9A3E493FAA3E493FBA34A
:20296A00E493FC904037E9F0904036EAF0904035EBF0904034ECF0748055A8FCC2AF751A6D
:20298A00059040067410F07B18ED60208D017A0019B9FF011AE92400F582EA3400F583E0F0
:2029AA00FB30E5027B0853030F430310904033EBF0C2AF7406B51A028022758202C007C001
:2029CA0006C005C004127308D004EC42A8C004127287D004D005D006D00780D5751A00908E
:2029EA004006E4F0ED2400FAE43400FB904033E0F98A828B83F0EC42A80D022941C007C0D9
:202A0A000612044FD006D0079040307409F09040317408F07D00908842E493FCC3ED9C50D4
:202A2A0077748055A8FCC2AF751A059040067410F0ED2400F582E43400F583E0FB30E502CF
:202A4A007B0853030F90403374104BF0C2AF7406B51A028022758202C007C006C005C00455
:202A6A00127308D004EC42A8C004127287D004D005D006D00780D5751A00904006E4F0ED75
:202A8A00240BFAE43400FB904033E0F98A828B83F0EC42A80D022A20904002E4F0900000A5
:202AAA00E0FD904033740F5DF0908843E493FAA3E493FBA3E493FCA3E493FD904037EAF06D
:202ACA00904036EBF0904035ECF0904034EDF0904030EFF0904031EEF07519017F00908865
:202AEA0042E493FEC3EF9E5023EF2400F582E43400F583E0FEEF240BF582E43400F583E055
:202B0A00FD4E30E504758206220F80D275820022E51A60057402B51A0475820122758200F0
:012B2A002288
:08933C00122B1AE582700122D8
:202B2B00E582FFB5190475820022AE19BE0002802EBE0202803BBE03028066BE1402806129
:202B4B00BE1502805CBE16028057BE1C03022C05BE1D03022C05BE1E03022C05022C12C0D9
:202B6B000712285DAE82D007EE7003022C1C8E8222C007126D34AE82D007EE6004758205F9
:202B8B0022C00712189D90001DE0F582122F18AE82D007EE60038E8222751A0075190180F5
:202BAB0070748055A8FEC2AFE51A7038C007C006120AAB90028912806390028EE4F09000AB
:202BCB002EE0FAA3E0FBA3E0FCA3E0FD90028FEAF0A3EBF0A3ECF0A3EDF090028912740547
:202BEB00D006D007C007C006121703D006EE42A812189DD0077519018017C00712170312ED
:202C0B00189DD007751901C007121703D007751901C007122833D007EF700475820122901D
:202C2B000018E4F0EF24CF5003022F10EF240983C0E0EF243483C0E02210A6AAD5101010F7
:202C4B00101010101010101010B4C7B4C736363610DA20DA20A1A1A1101B1B7676101010F8
:202C6B00101010101010101010DA2F2C2C2D2F2F2F2F2F2F2F2F2F2F2F2F2C2C2C2C2D2DED
:202C8B002D2F2C2D2C2D2D2D2D2F2E2E2E2E2F2F2F2F2F2F2F2F2F2F2F2F2C758200221222
:202CAB006D1275190275820022C007120B41D00790002374FFF08F1975820022C007120B2A
:202CCB0041D00790002374FFF08F1975820022C007120B761215B0D00790002374FFF08F4D
:202CEB0019908883E493FE602890029D127DB8908881E493FD740193FE7C007B009002A165
:202D0B00EDF0A3EEF0A3ECF0A3EBF090029D12741F75820022C007120B76121651D0079026
:202D2B00002374FFF08F19758200228F197415B51905904011E4F07416B5190690401174D5
:202D4B0004F0120B41904012E4F01216D6751A0F904003E0FE30E3F89040287403F09040D9
:202D6B000FE0120AAB900293128063900298E4F090002EE0FBA3E0FCA3E0FDA3E0FE9002CF
:202D8B0099EBF0A3ECF0A3EDF0A3EEF090029312740575820022C007120B76D007741DB5F4
:202DAB001905904011E4F0741EB519069040117404F0904012E4F09042307408F09041177A
:202DCB00E4F08F191215B0022CEC120B419040107408F0904161E4F0904162F0904163F084
:202DEB00904165F0904166E4F09041677401F09040237404F07519039040027407F0751A42
:202E0B000E904007E4F09040067401F0758200228F199000187403F090029D127DB89002DB
:202E2B00A17402F0A3E4F0A3F0A3F090029D12741F9002A1E0FBA3E0FCA3E0FDA3E0FE90F1
:202E4B000024EBF0A3ECF0A3EDF0A3EEF09088B4E493FB740193FC740293FD7403938B8289
:202E6B008C838DF01218C3758200228F19120B761215B09000187406F090029D127DB8908B
:202E8B0088BCE493FC740193FD740293FE740393FF9002A1ECF0A3EDF0A3EEF0A3EFF09039
:202EAB00029D12741F9002A1E0FCA3E0FDA3E0FEA3E0FF900024ECF0A3EDF0A3EEF0A3EF0E
:202ECB00F090024612806375660075671E75680090024A75F00012739190002EE0FCA3E004
:202EEB00FDA3E0FEA3E0FF90024CECF0A3EDF0A3EEF0A3EFF090024B7409F09002461274E2
:202F0B0005758200227582012285198222AF82908842E493FEC3EF9E4004758204229000EB
:202F2B001DEFF0EF2400F582E43400F583E0F56630E50475820622EF75F004A42443F58223
:202F4B00748835F0F583E493FBA3E493FCA3E493FDA3E493FF90001EE0F8A3E0F9A3E0FA96
:202F6B00A3E0FEE82BFBE93CFCEA3DFDEE3FFF904030E0FE30E71E904033740F5566F09072
:202F8B004037EBF0904036ECF0904035EDF0904034EFF0801C90403B740F5566F090403F49
:202FAB00EBF090403EECF090403DEDF090403CEFF0904030E06480F07582002290001DE012
:202FCB00F5822290001DE02400F582E43400F583E0FF740F5FF5822290001DE0240BF58208
:202FEB00E43400F583E0FF740F5FF58222AC82AD83AEF0FF90001EECF0A3EDF0A3EEF0A3B3
:20300B00EFF090887AE493C0E0740193C0E0740293C0E0740393C0E08C828D838EF0EF1285
:20302B007AC0AF82E58124FCF581EF60047582002290001EE0FCA3E0FDA3E0FEA3E0FF3075
:20304B00E72790887AE493FC740193FD740293FE740393FF90001EC3E49CF0E49DA3F0E464
:20306B009EA3F0E49FA3F0802090887AE493FC740193FD740293FE740393FF90001EECF0BA
:20308B00A3EDF0A3EEF0A3EFF075820422122FF8AF8290001DE0F582C007122F18AE82D0F7
:2030AB0007EF70028E078F822290001EE0FCA3E0FDA3E0FEA3E08C828D838EF022AD82AE2C
:2030CB0083AFF08D668E678F68756908756A0090003275F0001273B0021777AD82AE83AF24
:2030EB00F0756632756700756800756908756A008D828E838FF00273B0AD82AE83AFF08DFA
:20310B00668E678F68756904756A0090003A75F0000273B0AD82AE83AFF075663A7567004D
:20312B00756800756904756A008D828E838FF00273B0AD82AE83AFF0AC19BC10030232312A
:20314B00BC1103023231BC1203023231BC1303023231BC1402802ABC15028025BC1602807A
:20316B0020BC18030231F8BC19030231F8BC200302323CBC210302323CBC3002806F02346D
:20318B00F290402C12772EAB82AC837403251EF9E4351FFAC3EB99EC9A500475820422E51B
:2031AB001E451F602DAC1E90402974E1F0EC04F09040297408F0A91BAA1CAB1D89828A833E
:2031CB008BF012852CF8A3A982AA83904029E8F0DCEA9040287404F0748055A8FCC2AF90CE
:2031EB004007E04408F0EC42A875820022900018E0FC600475820222904006E4F0904007EE
:20320B00F09040027405F09040287403F0904003E0FC20E3F8C007C006C005120B41D005EA
:20322B00D006D007800B900018E0FC6004758202229088ABE493900022F0900023E02401B4
:20324B00F0908894E493FC7B00251EFAEB351FFB900019EAF0A3EBF0C374049A74019B502C
:20326B0004758204228C6775680075660090003E75F000C007C006C005127391908894E44C
:20328B0093243EFCE43400FB7A00851B66851C67851D68851E69851F6A8C828B838AF012CB
:2032AB0073B0D005D006D0079088ACE493FCBCFF028012EC243EFCE43400FB900023E0FAEE
:2032CB008C828B83F0908896E493FCBCFF028024EC243EFCE43400FB7A008D668E678F689F
:2032EB00908895E493FF8F69756A008C828B838AF01273B0908897E493FFBFFF028027EF83
:20330B00243EFFE43400FE7D00756632756700756800908895E493FC8C69756A008F828E55
:20332B00838DF01273B090889AE493FF6030900019E0FDA3E0908899E493FEEDC39E5FFEBB
:20334B00908898E493243EFDE43400FC8D828C83E0FBEFF4FF5B42068D828C83EEF0908836
:20336B0041E493FF700302340674FFC0E0C0E0900019E0C0E0A3E0C0E090003E75F0001298
:20338B0081ACAE82AF83E58124FCF581900019E0FCA3E0FD90001974012CF0E43DA3F0ECB8
:2033AB00243EF582ED3400F5838F05EDF0900019E0FCA3E0FD90001974012CF0E43DA3F02C
:2033CB00EC243EF582ED3400F583EEF0904011E0FF530701C3E49FFFC00774FFC0E07401F7
:2033EB00C0E0900019E0C0E0A3E0C0E090003E75F000127597E58124FBF5817420B5190226
:20340B0080057421B51904758200227411B51902801A7413B5190280137419B51902800CDA
:20342B00741BB5190280057430B51914908888E493FE740193FF90001BEEF0A3EFF080125E
:20344B0090888CE493FE740193FF90001BEEF0A3EFF0908884E493FF70030234E5AF19BF0F
:20346B0010028026BF11028021BF1202801CBF13028017BF18028012BF1902800DBF1A028F
:20348B008008BF1B028003BF305012170C120B7690887FE49390422CF09040027409F09068
:2034AB008884E493900022F09000187401F090029D127DB8908881E493FE740193FF7D00C7
:2034CB007C009002A1EEF0A3EFF0A3EDF0A3ECF090029D12741F758200229000187402F0D8
:2034EB001216D67582002275820122AF82741CB519028012741DB51902800B741EB519021F
:1B350B00800475820122904117EFF0758200227582FF0234F67582000234F6E2
:0492DD003FF03FF02F
:20352600AF82C2AF904006E04404F07E0090400CE0FD30E2050E904311E0C3EF9E4005122E
:20354600775180E9904006E054FBF0D2AF22904316E4F0904317F09043147424F0904315AE
:2035660074F8F09040027408F09088E6E493FE740193FFC313FC904312ECF0EFC313CE13F8
:20358600CE904313EEF01217249043107425F0758206123526904316E0FFBF7F0C90431675
:2035A60074BCF0758206123526904316E0FFBF800C90431674A8F07582061235269088E60B
:2035C600E493FE740193FF0303543FFC904312ECF0EFC313CE13CEC313CE13CE904313EE46
:2035E600F0758205123526904310E4F0904002F0904316E0FFBF7F028003BF800990431637
:07360600E4F0904317F022ED
:05013200E4F526F527AD
:20360D0075A00075980075A800028187AF827DE97E888D828E83E493FCB507012274032DA1
:20362D00FDE43EFE8D828E83E49370E6229002A7E4F0A3F022C065E581F5652404F581AE5E
:20364D0082AF839002A5C007C006127DB8D006D007A86508A60608A607087600087600EF90
:20366D00C313CE13CEFF8E048F057E007F009002A9ECF0A3EDF0A3EEF0A3EFF0A8650808DF
:20368D000808E618C40354F8C6C403C666C654F8C66608F61818E6C40354070846F618E68D
:2036AD0018C40354F8C6C403C666C654F8C66608F6A86508ECC396FCED0896FDEE0896FE75
:2036CD00EF0896FF9002A9ECF0A3EDF0A3EEF0A3EFF0A86508080808E618C40354F8C6C4EF
:2036ED0003C666C654F8C66608F61818E6C40354070846F618E618C40354F8C6C403C666F4
:20370D00C654F8C66608F6A86508E62CFC08E63DFD08E63EFE08E63FFF9002A9ECF0A3ED18
:20372D00F0A3EEF0A3EFF0A86508E625E0F608E633F608E633F608E633F6181818E625E01B
:20374D00F608E633F608E633F608E633F6A86508E62CFC08E63DFD08E63EFE08E63FFF90F0
:20376D0002A9ECF0A3EDF0A3EEF0A3EFF09002A7743AF0A37436F09002A5127466127287F0
:20378D007582021273089002A7E0FEA3E0FF4E70EC856581D06522AD82AE83AFF0AC24ECD6
:2037AD0060178D828E838FF012852CFBA3AD82AE838B82126B791C80E622AD82AE83AFF07F
:2037CD00AC25EC60318D828E838FF012852CFBA3AD82AE837A00C007C006C005C004740228
:2037ED00C0E08B828A83127E0E1581D004D005D006D0071C80CC22C065858165E56524FBF5
:20380D00F8E6084670030239E0E56524FBFFE56524FBF886040886050886068C828D838EBB
:20382D00F012852CFB70030239E0BB250280030239CDE56524FBF874012CF6E43D08F608B3
:20384D00A606E56524FBF886040886050886068C828D838EF012852CFE70030239E0BE25CF
:20386D00028034BE4803023949BE6302805ABE64028061BE6803023928BE69028056BE6C41
:20388D0003023994BE700302396ABE73028011BE750280660239C5758225126B790239D275
:2038AD00EF24FDFEFF8E0187040987050987061919EC4D70030239D28C828D838EF0C0075B
:2038CD00127B67D0070239D2EF14F9FF8782126B790239D2EF14FEFF8E01E7FE3395E0FDE3
:2038ED00C0077401C0E07403C0E08E828D8312843615811581D0070239D2EF14F9FF870644
:20390D007D00C007E4C0E07403C0E08E828D8312843615811581D0070239D2EF14F9FF873D
:20392D00067D00C007E4C0E07402C0E08E828D83127F5215811581D0070239D2EF14F9FF88
:20394D0087067D00C0077428C0E07402C0E08E828D83127F5215811581D0078068EF24FD39
:20396D00FEFF8E01870409870509870619198C828D83C0077408C0E07404C0E0127F5215B5
:20398D00811581D007803EEF24FCFEFF8E018702098704098705098706191919C0077410F5
:2039AD00C0E0740AC0E08A828C838DF0EE1282C815811581D007800D75823F126B79800519
:2039CD008B82126B79E56524FBF806B60002080602381BD06522AF82E5E220E40122EF24CC
:2039ED00FA404FEF2F2F9039F773023A09023A2D023A36023A12023A24023A1B90895975A5
:203A0D00F080027B6790895C75F080027B6790896075F080027B6790896475F080027B677F
:203A2D0090896875F080027B6790897075F080027B6790897675F080027B67AF82E5E2206D
:203A4D00E40122EF24F45003023AEFEF2F2F903A5F73023A83023A8C023A95023A9E023A76
:203A6D00A7023AB0023AB9023AC2023ACB023AD4023ADD023AE690897B75F080027B679074
:203A8D00898075F080027B6790898975F080027B6790898F75F080027B6790899675F080D7
:203AAD00027B6790899C75F080027B679089A475F080027B679089AB75F080027B6790896B
:203ACD00B275F080027B679089B975F080027B679089C075F080027B679089C975F0800258
:203AED007B679089D175F080027B67E582FF60058F82023A4822E5264527700EAF9DFEACB7
:203B0D009CFDEE4CF526EF4DF527AE26E5275401A2E0CE13CE13CEFFEEC39526FEEF9527F7
:203B2D00FF74FB2EF526E43FF527AF26E5272FF58222123B03E582FF60F8BFFF0280F38F09
:023B4D008222D2
:2088E900010189021289031A89042589053089064189074C89000000453A206E6F74207302
:208909007570706F7274656400453A206275737900453A2074696D656F757400453A2069CB
:208929006E76616C696400453A206E6F206368697020666F756E6400453A2072616E676984
:208949006E6700453A206C6F636B206C6F7374005258005458530054584400545845005233
:2089690045435F53464400535441544500554E4B4E00455F4F4B00455F4E4F5453555000A2
:20898900455F42535900455F544F555400455F494E5600455F4E4348495000455F52414E20
:2089A9004700455F4C4F434B00455F5245545800455F5245535900455F52455359544F0042
:0F89C900455F525853544100455F554E4B4E0089
:1F013700752828752914E4F52AF52BF52C752D00752E00C200C201C202C203C204C2050E
:203B4F00C20522D20222D203900851E02401F022C2029004B11277D8E529452A452B452CDA
:203B6F0060189004B5E529F0A3E52AF0A3E52BF0A3E52CF09004B102741F22C2029004B189
:203B8F000277D89004B11277D8E5827003023B5F9004B10274E79004B90277D89004B9120A
:203BAF0077D8900837E0FCA3E0FDA3E0FEA3E0FF9004BDECF0A3EDF0A3EEF0A3EFF0900831
:203BCF003BE0FF6032900851E0FEC3EF9E5028900837E0FCA3E0FDA3E0FEA3E0FFEC2CFC59
:203BEF00ED33FDEE33FEEF33FF9004BDECF0A3EDF0A3EEF0A3EFF0122F14AF82BF190280C9
:203C0F0008122F14AF82BF3034900837E0FCA3E0FDA3E0FEA3E0FFEC2CFCED33FDEE33FE66
:203C2F00EF33FFEC2CFCED33FDEE33FEEF33FF9004BDECF0A3EDF0A3EEF0A3EFF09004B9E6
:203C4F0002741F9004B37452F0A3743BF09004B5E529F0A3E52AF0A3E52BF0A3E52CF090C1
:203C6F0004B112741F9004BB7455F0A3743BF0900837E0FCA3E0FDA3E0FEA3E0FF9004BD12
:203C8F00ECF0A3EDF0A3EEF0A3EFF09004C3744FF0A3743BF090082FE0FCA3E0FDA3E0FEC6
:203CAF00A3E0FF9004C5ECF0A3EDF0A3EEF0A3EFF09002AD1207169003AF12071602401189
:203CCF009003AFE0FFFEAD2D300501223003388F2E758230C006C005122B2BD005D0069007
:203CEF00083BE0FF600D900851E0FCC3EF9C500343050290083CE0FF600D900851E0FCC3CE
:203D0F00EF9C50030240403001034305109003AFE52EF0C006C005120800AF82D005D006E2
:203D2F00C3E5289F4013EF600320020DEF6003200307E52D7003023DED8D2F9004C9C00625
:203D4F00123FADAF82D0069004B9C007C0061277D8D006D00730040C300317900851E0FD17
:203D6F0024FE500E758230C007C006122B2BD006D007900845E070267C497D08FB751BC9FA
:203D8F00751C04751D008F1E751F008C828D838BF0C007C00612313DD006D007801F751B2A
:203DAF00C9751C04751D008F1E751F0090083D75F000C007C00612313DD006D0079003B08C
:203DCF00E0F52EEF24FC500AC006123B5F1244BFD006752D00900852E02401F0D205900320
:203DEF00AFEEF0C203C2029003B0E0FF9003AFE0FEEFB50606123B8A023BA522122F14AFCD
:203E0F0082BF181E900833E0FCA3E0FDA3E0FEA3E0FF9004C5ECF0A3EDF0A3EEF0A3EFF03A
:203E2F00801C90082FE0FCA3E0FDA3E0FEA3E0FF9004C5ECF0A3EDF0A3EEF0A3EFF0900465
:203E4F00C112741F023BABAE82AF83A3E0FD8E828F83A3A3E0FC8E828F83E0FBC2AF9008D9
:203E6F0053E02401F09005C8E0F9A3E0FAC3740399E49A5003432D01EB20E003023F329032
:203E8F0003B0E0F8B5040280328C669003AFC007C006C005C004C003C002C001120954E537
:203EAF0082D001D002D003D004D005D006D00760729003AFE0F8B5040280689003AFECF0F8
:203ECF009003B0E0F8B504028025852E669003AFC007C006C005C003C002C001120954E511
:203EEF0082D001D002D003D005D006D00770069003AFE0F52E9003B0E0FC9003AFE0F8EC59
:203F0F00B5001BC007C006C005C003C002C001123BA5D001D002D003D005D006D0079008A8
:203F2F0051E4F0EB30E10D9002ADEDF09002AEEDF0432D01EB30E603432D019002AEE0FC09
:203F4F00EDB5043E74032EF508E43FF509E924FDF50A9002ADC0031207B6D003300023EBC0
:203F6F0030E41F9002AEE0FF9002ADE0FEEFB50602800F9002ADC003120724126064D003A0
:203F8F0080E1D2AFC003124032D003EB30E207C003124040D003EB30E30343871022AE82BD
:203FAF00AF8374012EFCE43FFD9003AFE08C828D83F074022EFCE43FFD9002AEE08C828D56
:203FCF0083F07401452F8E828F83F074032EF510E43FF5117512FC9003AF12086CE58224BB
:203FEF0003F5822290084574FFF090084674FFF090084175F0001230C890083D75F0000211
:20400F003104900845E4F0900846F090084975F0001230C87E497F087D008E828F838DF023
:20402F00023104200402D204758218122B2B0244BF123BA5752D009002AD120716752E001D
:20404F009003AF120716C202C203900851E4F0900852F0900853F0124011758219122B2B0A
:05406F00C20422222220
:2092E100FA0000005A0000004001000003050D2500002A25000000000000FFFF0000000051
:05930100000000000067
:04015600C206C20714
:2040740030060122758230122B2B9005D474A8F0A37441F09005D67440F0A37401F0A3E4E9
:20409400F0A3F09005D212741FD289900841E0900855F0900842E0900856F090083DE090AF
:2040B4000857F090083EE0900858F0900845E0900859F0900846E090085AF090085BA20430
:2040D400E433F09005CC7456F0A37441F09005CEE4F0A37419F0A3E4F0A3F09005CA12741C
:2040F4001FC204D206C207900854E4F012401102438A9005CA1277D8C2069008547401F05B
:204114009005D67428F0A3E4F0A3F0A3F09005D21277D89005D212741F123FF312175475ED
:204134008218122B2B0240329005CA1277D89005CEE4F0A37419F0A3E4F0A3F09005CA0273
:20415400741F758219122B2BC2069005D21277D8C289900855E0900841F0900856E0900869
:2041740042F0900857E090083DF0900858E090083EF0900859E0900845F090085AE09008C7
:2041940046F090084175F0001230C890085BE024FF920422900854E0FF24F95003C2892237
:2041B400638802EF6015900854EF04F09005D67428F0A3E4F0A3F0A3F0800F9005D6744089
:2041D400F0A37401F0A3E4F0A3F09005D202741FAE82AF8374062EFEE43FFF74142EF58276
:2041F400E43FF583E0FCA3E0FD8C828D83E0FB74162EF582E43FF583E0F9A3E0FAB9010AD7
:20421400BA0007EB30E5030242D3900845E0F8B8FF0280030242C4900846E0F8B8FF0280C7
:20423400030242C4C001C002740A2EF582E43FF583E0F890083DE0FAE8B502028005D0029F
:20425400D00122D002D001C001C002740B2EF582E43FF583E0F890083EE0FAE8B5020280C9
:2042740005D002D00122D002D001C001C002740E2EF582E43FF583E0F8900841E0FAE8B550
:2042940002028005D002D00122D002D001C001C002740F2EF582E43FF583E0F8900842E041
:2042B400FAE8B50206D002D0018005D002D001229005C8E9F0A3EAF08C828D83023E5620D7
:2042D400060122EB30E149740E2EF582E43FF583E0900841F0740F2EF582E43FF583E090BE
:2042F4000842F0740A2EF582E43FF583E090083DF0740B2EF582E43FF583E090083EF09018
:20431400084175F0001230C8D20712413C0243D9EB30E061740E2EFCE43FFD900841E0FB6F
:204334008C828D83E0FCEBB5044B740F2EFCE43FFD900842E0FB8C828D83E0FCEBB504352B
:20435400740A2EFCE43FFD90083DE0FB8C828D83E0FCEBB5041F740B2EFEE43FFF90083E71
:20437400E0FD8E828F83E0FEEDB506092007031243D9024106229005DA7422F0123B3FAFA8
:2043940082900841EFF0123B3FAF82900842EFF0123B3FAF8290083DEFF0123B3FAF82909B
:2043B400083EEFF090084175F0001230C8751BDA751C05751D00751E01751F0090083D7578
:2043D400F00002313D9005DB7421F0751BDB751C05751D00751E01751F0090083D75F0007F
:0343F40002313D56
:0893060000000000000000005F
:13015A0075302BD208C209C20AD20BC20CC20DC20EC20F36
:2043F700E5F820E4031247F0907087E0FF30E003124738907087E04401F0123C521265E5D7
:204417009005EC1207169005DE74B6F0A37444F09005E674B9F0A37444F0122FC7022F18C9
:204437009003B0E0FF9003AFE0FEEFB506199002AEE0FF9002ADE0FEEFB5060BE4B52D07A2
:20445700127C68E58270047F0080027F018F8222900860E0FCA3E0FDA3E0FEA3E0FF9005D4
:20447700E0ECF0A3EDF0A3EEF0A3EFF0C20F9005DC02741F900868E0FF60239005DC1277B3
:20449700D8900868E0FF60148530669003AF12075A900868E014900868F080E5C20F22D2FC
:2044B7000F22758219022B2B900864E0FCA3E0FDA3E0FEA3E0FFEC4D4E4F60369005E412FA
:2044D70077D8900864E0FCA3E0FDA3E0FEA3E0FF9005E8ECF0A3EDF0A3EEF0A3EFF09005AA
:2044F700E412741F122F14AF82BF1906758230022B2B229005E40277D8300F17900868E017
:20451700FFBF030FC20F900868E4F0D20E9089D80245882290085CE0F58212791B90085D67
:20453700E0FF60058F8202791B22AE82AF839005ECC007C006120716D006D00790086AE425
:20455700F090086BF0200A28300B1F9089F275F080C007C006127EDBD006D0077D808E8213
:204577008F838DF0127EDB02452B75820402791B22AE82AF83200A28300B1F9089F975F080
:2045970080C007C006127EDBD006D0077D808E828F838DF0127EDB02452B75820002791BD9
:2045B70022AF827E01BEC8004001229006EEE4F09006F1EEF09006EEC007C006124821AA36
:2045D70082AB83ACF0FDD006D0079006EEE0F96003024680EF70219089FD75F080C007C044
:2045F70006C005C004C003C002127EDBD002D003D004D005D006D0078E82C007C006C005C8
:20461700C004C003C0021261F4D002D003D004D005D006D007EF600875822C12791B802117
:20463700908A0275F080C007C006C005C004C003C002127EDBD002D003D004D005D006D068
:20465700078A828B838CF0EDC007C00612619CD006D007EF600875823B12791B800BC007EF
:20467700C00612452BD006D0070E0245BC12795090B0001282B67F01BFC800400302471E07
:204697009006EFE4F09006F1EFF09006EFC00712482185823185833285F033F534D00790D3
:2046B70006EFE0FA705DEF75F004A4F9AAF0898274B02AF583A831AC32885F8C60C007C0D6
:2046D70002C001127938AE82D001D0029006EFE04EF0740229F58274B03AF583AD33AE3419
:2046F7008D5F8E60127938AE82D0079006EFE0FD4EF09006EFE0FE600A908A071245417564
:204717008200220F02468F755FEF7560BE90B000127938128183907087E04401F0758201F5
:204737002290B000127EB1AE82AF83BEEF05BFBE02800A908A20124541758200227F01BF78
:20475700C80040030247EC9006F0E4F09006F1EFF09006F0C007124821D0079006F0E0FE3F
:20477700706FEF75F004A4FDAEF074022DF58274B03EF583C007C006C005127EB1AB82AC4C
:2047970083D005D0068B358C367537008536388535377536007535008D8274B02EF5831282
:2047B7007EB1AD82AE83D0078D008E047D007E009006F4E84535F0EC4536A3F0ED4537A380
:2047D700F0EE4538A3F0C2108F82C007125071D0070F0247567582012212795090B000128B
:2047F70082B6755F1075604190B000127938E582600A908A07124541758200221281839024
:204817007087E054FEF075820122AE82AF83E4F09006F1E0FDBD02030249C6BD03030249D3
:20483700D6BD04030249E9BD05030249FCBD0603024A0FBD0703024A22BD0C03024A35BD27
:204857001403024A49BD2803024A5DBD2903024A70BD2A03024A83BD2B03024A96BD2C03ED
:20487700024AA9BD2D03024ABCBD2E03024AF5BD2F03024B08BD3003024B1BBD3103024B2E
:204897002EBD6103024B41BD6203024B55BD6303024B68BD6403024B7BBD6503024B8FBDDE
:2048B7006603024B9FBD6703024BABBD6803024BBFBD6903024BD2BD6A03024BE5BD6E0367
:2048D700024BFDBD6F03024C10BD7003024C23BD7103024C36BD7203024C49BD7303024C4A
:2048F7005CBD7803024C6FBD7903024C83E4BD950104FC6003024C97BD9603024C97BD9738
:2049170003024DF2BD9803024E05BD9903024E18BDC803024E2BBDC903024E3EBDCA030228
:204937004E51BDCB03024E64BDCC03024E77BDCD03024E87BDCE03024E9ABDCF03024EADC7
:20495700BDD003024EC0BDD203024ED3BDD303024EE6BDD403024EF9BDD503024F0CBDD6C0
:2049770003024F1FBDDC03024F32BDDD03024F45BDDE03024F58BDDF03024F6BBDE0030217
:204997004F7EBDE103024F91BDE203024FA1BDE303024FB1BDE403024FC1BDE503024FD1FA
:2049B700BDE603024FE1BDF003024FF1025009A9307A007B007D0089828A838BF0ED22903E
:2049D700085CE0F97A007B007D0089828A838BF0ED2290085DE0F97A007B007D0089828A9A
:2049F700838BF0ED2290085EE0F97A007B007D0089828A838BF0ED22900870E0F97A007BDA
:204A1700007D0089828A838BF0ED22900871E0F97A007B007D0089828A838BF0ED229008D2
:204A370060E0F9A3E0FAA3E0FBA3E089828A838BF022900864E0F9A3E0FAA3E0FBA3E08917
:204A5700828A838BF022A20EE433F97A007B007D0089828A838BF0ED22A208E433F97A000B
:204A77007B007D0089828A838BF0ED22A20AE433F97A007B007D0089828A838BF0ED22A213
:204A97000BE433F97A007B007D0089828A838BF0ED22A20CE433F97A007B007D0089828A0B
:204AB700838BF0ED22900845E0FDE4BD000104FDB40100E433FD7016900846E0FDE4BD00CA
:204AD7000104FDB40100E433FD7003FD80027D01EDF93395E0FAFB89828A838BF022A200AA
:204AF700E433F97A007B007D0089828A838BF0ED22A201E433F97A007B007D0089828A833E
:204B17008BF0ED22A20DE433F97A007B007D0089828A838BF0ED22A209E433F97A007B0071
:204B37007D0089828A838BF0ED22900876E0F9A3E0FAA3E0FBA3E089828A838BF02290088D
:204B570075E0F97A007B007D0089828A838BF0ED22900874E0F97A007B007D0089828A836D
:204B77008BF0ED2290086CE0F9A3E0FAA3E0FBA3E089828A838BF022A9287A007B007D0041
:204B970089828A838BF0ED22852982852A83852BF0E52C22900837E0F9A3E0FAA3E0FBA3E1
:204BB700E089828A838BF02290083BE0F97A007B007D0089828A838BF0ED2290083CE0F9DC
:204BD7007A007B007D0089828A838BF0ED229003AF120800AD828D017A007B007D00898214
:204BF7008A838BF0ED22900841E0F97A007B007D0089828A838BF0ED22900842E0F97A0014
:204C17007B007D0089828A838BF0ED2290083DE0F97A007B007D0089828A838BF0ED229091
:204C3700083EE0F97A007B007D0089828A838BF0ED22900873E0F97A007B007D0089828A3F
:204C5700838BF0ED22900872E0F97A007B007D0089828A838BF0ED2290082FE0F9A3E0FA1C
:204C7700A3E0FBA3E089828A838BF022900833E0F9A3E0FAA3E0FBA3E089828A838BF02290
:204C9700904030E0FD30E77290403CE0FD8D39753A00753B00853B3C853A3B85393A7539ED
:204CB7000090403DE0F8E4FAFBFDE84239EA423AEB423BED423C853B3C853A3B85393A7523
:204CD700390090403EE0F9E4FAFBFDE94239EA423AEB423BED423C853B3C853A3B85393A3C
:204CF70075390090403FE0F9E4FAFBFDE94239EA423AEB423BED423C8070904034E0FD8D36
:204D170039753A00753B00853B3C853A3B85393A753900904035E0F9E4FAFBFDE94239EA46
:204D3700423AEB423BED423C853B3C853A3B85393A753900904036E0F9E4FAFBFDE9423958
:204D5700EA423AEB423BED423C853B3C853A3B85393A753900904037E0F9E4FAFBFDE94286
:204D770039EA423AEB423BED423CC0041230B4A982AA83ABF0FDD004E539C399F539E53A65
:204D97009AF53AE53B9BF53BE53C9DF53CEC603F853982853A83853BF0E53C1274ADAA821C
:204DB700AB83ACF0FDC002C003C004C005901B0075F0377440126A83AA82AB83ACF0FDE535
:204DD7008124FCF5818A828B838CF0ED0274C0853982853A83853BF0E53C22122FC7AD8240
:204DF7007C007B007A008D828C838BF0EA22904040E0FD7C007B007A008D828C838BF0EAA5
:204E170022904041E0FD7C007B007A008D828C838BF0EA229002ADE0FD7C007B007A008D3B
:204E3700828C838BF0EA229002AEE0FD7C007B007A008D828C838BF0EA229003AFE0FD7C75
:204E5700007B007A008D828C838BF0EA229003B0E0FD7C007B007A008D828C838BF0EA226B
:204E7700AA2E7B007C007D008A828B838CF0ED22900851E0FD7C007B007A008D828C838B4A
:204E9700F0EA22900852E0FD7C007B007A008D828C838BF0EA22900853E0FD7C007B007AE9
:204EB700008D828C838BF0EA22123B03AD827C007B007A008D828C838BF0EA22907084E03D
:204ED700FD7C007B007A008D828C838BF0EA22907085E0FD7C007B007A008D828C838BF03C
:204EF700EA22907086E0FD7C007B007A008D828C838BF0EA22907087E0FD7C007B007A0041
:204F17008D828C838BF0EA22122F14AD827C007B007A008D828C838BF0EA22904007E0FD87
:204F37007C007B007A008D828C838BF0EA22904006E0FD7C007B007A008D828C838BF0EA9D
:204F57002290400BE0FD7C007B007A008D828C838BF0EA2290400AE0FD7C007B007A008D95
:204F7700828C838BF0EA22904002E0FD7C007B007A008D828C838BF0EA22AAA87B007C00F4
:204F97007D008A828B838CF0ED22AA987B007C007D008A828B838CF0ED22AAA07B007C003C
:204FB7007D008A828B838CF0ED22AAB87B007C007D008A828B838CF0ED22AAB07B007C00EC
:204FD7007D008A828B838CF0ED22AAC07B007C007D008A828B838CF0ED22E5E230E4047DB9
:204FF7000180027D00ED3395E0FCFB8D828C838BF0228E828F837401F0900000E4F5F02251
:20501700E5829006F2F09006F3E4F09006F2E09006F1F09006F3124821AC82AD83AEF0FF5F
:205037009006F3E0FB600D908A3F124541900000E4F5F022ED7006EE7003EF600280078CF4
:20505700821261F4800A8C828D838EF0EF12619C12452B900001E4F5F022E5829006F8F049
:20507700FFBF02030251E3BF03030251F6BF040302520CBF0503025222BF0603025238BF9C
:20509700070302524EBF0C03025264BF1403025283BF28030252ABBF29030252CEBF2A0338
:2050B7000252F1BF2B03025314BF2C03025337BF2D0302535ABF2E03025380BF2F0302531B
:2050D700A3BF30030253C6BF31030253E9BF610302540CBF620302542BBF6303025441BF33
:2050F7006403025457BF650302547FBF6603025492BF67030254B0BF68030254CFBF6903D0
:205117000254E5BF6E030254FBBF6F03025517BF7003025533BF710302554FBF72030255FD
:205137006BBF7303025581BF7803025597BF79030255B6BF97030255D5BFC8030255F0BF5B
:20515700C903025606BFCA0302561CBFCB03025632BFCC03025648BFCD0302565BBFCE03F7
:20517700025671BFCF03025687BFD20302569DBFD3030256B3BFD4030256C9BFD503025610
:20519700DFBFD6030256F5BFDC03025708BFDD0302571EBFDE03025734BFDF0302574ABFEF
:2051B700E003025760BFE103025775BFE203025787BFE303025799BFE4030257ABBFE5035F
:2051D7000257BDBFE6030257CF0257E19006F4E0FCA3E0FDA3E0FEA3E0FF8C300257E59025
:2051F70006F4E0FCA3E0FDA3E0FEA3E0FF90085CECF00257E59006F4E0FCA3E0FDA3E0FECA
:20521700A3E0FF90085DECF00257E59006F4E0FCA3E0FDA3E0FEA3E0FF90085EECF00257D2
:20523700E59006F4E0FCA3E0FDA3E0FEA3E0FF900870ECF00257E59006F4E0FCA3E0FDA3DE
:20525700E0FEA3E0FF900871ECF00257E59006F4E0FCA3E0FDA3E0FEA3E0FF900860ECF0F7
:20527700A3EDF0A3EEF0A3EFF00257E59006F4E0FCA3E0FDA3E0FEA3E0FF900864ECF0A3F2
:20529700EDF0A3EEF0A3EFF02010030257E51244BF0257E59006F4E0FCA3E0FDA3E0FEA349
:2052B700E0FFBC010CBD0009BE0006BF0003D38001C3920E0257E59006F4E0FCA3E0FDA365
:2052D700E0FEA3E0FFBC010CBD0009BE0006BF0003D38001C392080257E59006F4E0FCA34A
:2052F700E0FDA3E0FEA3E0FFBC010CBD0009BE0006BF0003D38001C3920A0257E59006F427
:20531700E0FCA3E0FDA3E0FEA3E0FFBC010CBD0009BE0006BF0003D38001C3920B0257E510
:205337009006F4E0FCA3E0FDA3E0FEA3E0FFBC010CBD0009BE0006BF0003D38001C3920CA3
:205357000257E59006F4E0FCA3E0FDA3E0FEA3E0FFBC010FBD000CBE0009BF0006123FF3AA
:205377000257E51240110257E59006F4E0FCA3E0FDA3E0FEA3E0FFBC010CBD0009BE0006FB
:20539700BF0003D38001C392000257E59006F4E0FCA3E0FDA3E0FEA3E0FFBC010CBD0009D5
:2053B700BE0006BF0003D38001C392010257E59006F4E0FCA3E0FDA3E0FEA3E0FFBC010CB6
:2053D700BD0009BE0006BF0003D38001C3920D0257E59006F4E0FCA3E0FDA3E0FEA3E0FF8D
:2053F700BC010CBD0009BE0006BF0003D38001C392090257E59006F4E0FCA3E0FDA3E0FE2A
:20541700A3E0FF900876ECF0A3EDF0A3EEF0A3EFF00257E59006F4E0FCA3E0FDA3E0FEA33E
:20543700E0FF900875ECF00257E59006F4E0FCA3E0FDA3E0FEA3E0FF900874ECF00257E540
:205457009006F4E0FCA3E0FDA3E0FEA3E0FF90086CECF0A3EDF0A3EEF0A3EFF020100302B4
:2054770057E512667E0257E59006F4E0FCA3E0FDA3E0FEA3E0FF8C280257E59006F4E0F56B
:2054970029A3E0F52AA3E0F52BA3E0F52C2010030257E5123B5F0257E59006F4E0FCA3E09F
:2054B700FDA3E0FEA3E0FF900837ECF0A3EDF0A3EEF0A3EFF00257E59006F4E0FCA3E0FD83
:2054D700A3E0FEA3E0FF90083BECF00257E59006F4E0FCA3E0FDA3E0FEA3E0FF90083CEC1C
:2054F700F00257E59006F4E0FCA3E0A3E0A3E0900841ECF090084175F0001230C80257E53D
:205517009006F4E0FCA3E0A3E0A3E0900842ECF090084175F0001230C80257E59006F4E0DF
:20553700FCA3E0A3E0A3E090083DECF090083D75F0001231040257E59006F4E0FCA3E0A3D3
:20555700E0A3E090083EECF090083D75F0001231040257E59006F4E0FCA3E0FDA3E0FEA356
:20557700E0FF900873ECF00257E59006F4E0FCA3E0FDA3E0FEA3E0FF900872ECF00257E503
:205597009006F4E0FCA3E0FDA3E0FEA3E0FF90082FECF0A3EDF0A3EEF0A3EFF00257E59017
:2055B70006F4E0FCA3E0FDA3E0FEA3E0FF900833ECF0A3EDF0A3EEF0A3EFF00257E590067D
:2055D700F4E0FCA3E0A3E0A3E08C82122F18E5827003F58222758202229006F4E0FCA3E07D
:2055F700FDA3E0FEA3E0FF9002ADECF00257E59006F4E0FCA3E0FDA3E0FEA3E0FF9002AE12
:20561700ECF00257E59006F4E0FCA3E0FDA3E0FEA3E0FF9003AFECF00257E59006F4E0FCAE
:20563700A3E0FDA3E0FEA3E0FF9003B0ECF00257E59006F4E0FCA3E0FDA3E0FEA3E0FF8CFE
:205657002E0257E59006F4E0FCA3E0FDA3E0FEA3E0FF900851ECF00257E59006F4E0FCA3D2
:20567700E0FDA3E0FEA3E0FF900852ECF00257E59006F4E0FCA3E0FDA3E0FEA3E0FF9008AE
:2056970053ECF00257E59006F4E0FCA3E0FDA3E0FEA3E0FF907084ECF00257E59006F4E095
:2056B700FCA3E0FDA3E0FEA3E0FF907085ECF00257E59006F4E0FCA3E0FDA3E0FEA3E0FFCC
:2056D700907086ECF00257E59006F4E0FCA3E0FDA3E0FEA3E0FF907087ECF00257E59006F3
:2056F700F4E0FCA3E0A3E0A3E08C82122B2B0257E59006F4E0FCA3E0FDA3E0FEA3E0FF900D
:205717004007ECF00257E59006F4E0FCA3E0FDA3E0FEA3E0FF904006ECF00257E59006F4AE
:20573700E0FCA3E0FDA3E0FEA3E0FF90400BECF00257E59006F4E0FCA3E0FDA3E0FEA3E014
:20575700FF90400AECF00257E59006F4E0FCA3E0FDA3E0FEA3E0FF904002ECF08070900622
:20577700F4E0FCA3E0FDA3E0FEA3E0FF8CA8805E9006F4E0FCA3E0FDA3E0FEA3E0FF8C98A0
:20579700804C9006F4E0FCA3E0FDA3E0FEA3E0FF8CA0803A9006F4E0FCA3E0FDA3E0FEA34D
:2057B700E0FF8CB880289006F4E0FCA3E0FDA3E0FEA3E0FF8CB080169006F4E0FCA3E0FD66
:2057D700A3E0FEA3E0FF8CC0800475820122758200229005EC120800AF82BF0200500302CA
:2057F700604E9005EC120724AF82BF410280030260489005EC120724AF82BF54028003023D
:2058170060489005EDE0FF9005ECE0FEEFB5060302603C9005EC120724AF82300C139005EB
:20583700ECC007126460AB82AC83ADF0FED00780119005ECC007126376AB82AC83ADF0FE3F
:20585700D007BF41005003026015EF24A55003026015EF24BFFA240983C0E0EA241D83C084
:20587700E022099415C9ADA0F2CF5B155A153415050F0A1E06989A1F1546155F5D5C605A89
:20589700585C5A5A59605D605960595D595C5A5D5C596059605C8B3D8C3E8D3F8E40C374AB
:2058B700059BE49CE49DE49E403EE53D75F003A49058CB730258DD0258E40258EB0258F0D8
:2058D7000258F50258FAC208C209025819D208D209025819C208025819D208025819C20989
:2058F700025819D209025819908A59024541C20E025819BB010CBC0009BD0006BE0003D3AE
:205917008001C3920A025819BB010CBC0009BD0006BE0003D38001C3920B025819EB4C4D61
:205937004E6006123FF3025819124011025819BB010CBC0009BD0006BE0003D38001C39255
:205957000C0258198B3D8C3E8D3F8E40C374089BE49CE49DE49E50030259FAE53D75F003F6
:20597700A490597C730259970259A20259AD0259B80259C30259CE0259D90259E40259EF86
:20599700908A7075F080127EDB805E908A9A75F080127EDB8053907F00E0F5821261F48014
:2059B7004890000012772E1261F4803D908AC775F080127EDB8032908AC975F080127EDB07
:2059D7008027908ACB75F080127EDB801C908ACD75F080127EDB8011908AD675F080127E0B
:2059F700DB8006908AEF02454112452B025819EB4C4D4E6005900869EBF09005EDE0FA90AA
:205A170005ECE0F9EAB501030258197A00E924EEF582EA3405F583E0FABA3F289005EC127A
:205A37000724900869E0F58212501785823D85833E85F03FF540E53D453E453F45406003CF
:205A570002581922BA3D0280030258199005EC120724300C139005EC12646085823D8583FB
:205A77003E85F03FF54080119005EC12637685823D85833E85F03FF540900869E0FA900607
:205A9700F4E53DF0A3E53EF0A3E53FF0A3E540F0D2108A82125071AA82BA01028008BA02D6
:205AB700028009025819908A3F024541908B11024541432D02025819EB4C4D4E70061240BD
:205AD70040025819BB010BBC0008BD0005BE00028003025819432D04025819908B2475F06E
:205AF70080127EDB9002ADE0F5821261F412452B908B3775F080127EDB9002AEE0F58212DA
:205B170061F412452B908B4A75F080127EDB9003AFE0F5821261F412452B908B5D75F08003
:205B3700127EDB9003B0E0F5821261F412452B908B7075F080127EDB852E821261F4124592
:205B57002B908B8375F080127EDB12452B908B8975F080127EDB900851E0F5821261F412E6
:205B7700452B908B9875F080127EDB900852E0F5821261F412452B908BAD75F080127EDB59
:205B9700900853E0F5821261F412452B908B8375F080127EDB12452B908BC275F080127E01
:205BB700DB900841E0F5821261F475823A12791B900842E0F5821261F412452B908BD47507
:205BD700F080127EDB90083DE0F5821261F475823A12791B90083EE0F5821261F412452B53
:205BF700908BE675F080127EDB900845E0F5821261F475823A12791B900846E0F582126123
:205C1700F412452B0258198B3D8C3E8D3F8E40C374039BE49CE49DE49E5003025819E53D18
:205C370075F003A4905C3F73025C4B025C50025C55025C5AC200025819D200025819C201A4
:205C5700025819D201025819EB4C4D4E7006126182025819BB010FBC000CBD0009BE0006A7
:205C770012618F025819BB020BBC0008BD0005BE00028003025819432D08025819124074E3
:205C97000258191265FF0258198B3D8C3E8D3F8E40C374049BE49CE49DE49E404CE53D75E9
:205CB700F003A4905CBE73025CCD025CD8025CE3025CEE025CF7124738E582600302581908
:205CD70022124684E5826003025819221247F0E5826003025819227582001245B80258192F
:205CF7007582011245B8025819908BF8124541025819432D40025819BB000BBC0008BD008B
:205D170005BE0002801CBB010BBC0008BD0005BE00028017BB0226BC0023BD0020BE001DED
:205D37008012758218122B2B025819758230122B2B025819758219122B2B025819908C0EB9
:205D57000245419005EDE0FE9005ECE0FD90086BE09005EDF090086AE09005ECF075664B18
:205D77007567209005ECC006C0051209961257E9D005D0069005ECEDF09005EDEEF002583E
:205D970019908C2175F080127EDB12452B900721E0FDA3E0FEBDFF05BEFF028044908C2A24
:205DB70075F080C006C005127EDBD005D0068D828E83A3A3E0FBA3E0FC8B018C027B807CF5
:205DD7000089828A838BF0ECC006C00512619C12452BD005D0068D828E83E0FDA3E0FE8068
:205DF700B4908C3675F080127EDB12452B900717E0FDA3E0FEBDFF05BEFF028070908C2AF2
:205E170075F080C006C005127EDBD005D0068D828E83A3A3E0FBA3E0FC8B018C027B807C94
:205E37000089828A838BF0ECC006C00512619C908C4575F080127EDBD005D0068D828E83B6
:205E5700A3A3A3A3E0F9A3E0FAA3E0FBA3E089828A838BF0C006C00512619C12452BD005C4
:205E7700D0068D828E83E0FDA3E0FE8088908C4D75F080127EDB12452B90071FE0FDA3E05E
:205E9700FEBDFF05BEFF028070908C2A75F080C006C005127EDBD005D0068D828E83A3A34B
:205EB700E0FBA3E0FC8B018C027B807C0089828A838BF0ECC006C00512619C908C4575F001
:205ED70080127EDBD005D0068D828E83A3A3A3A3E0F9A3E0FAA3E0FBA3E089828A838BF07F
:205EF700C006C00512619C12452BD005D0068D828E83E0FDA3E0FE8088908C5C75F08012CF
:205F17007EDB85A8821261F4908C6075F080127EDB8598821261F4908C6675F080127EDB57
:205F370085A0821261F412452B908C6D75F080127EDB907000E0F5821261F412452B908C85
:205F57007675F080127EDB907001E0F5821261F412452B908C7F75F080127EDB907002E056
:205F7700F5821261F412452B908C8875F080127EDB8589821261F412452B908C8E75F080AE
:205F9700127EDB858A821261F412452B908C9475F080127EDB858B821261F412452B908C6E
:205FB7009A75F080127EDB85F1821261F412452B908CA275F080127EDB85F9821261F41278
:205FD700452B908CAA75F080127EDB85E9821261F412452B908CB375F080127EDB85DA824B
:205FF7001261F412452B908CBB75F080127EDB907052E0F5821261F412452B025819BF2096
:2060170003025819BF0903025819EFB5300302581990085DE0FE6007EFB506030258199081
:206037008CC5024541908CD5124588300D0FC20E22908CD6024541908CD602454122AF821B
:20605700300E058F820260648F82026140AF8290085CE0FEEFB5062512452B9005ECE0FEA8
:20607700C0061257E9D00690086AEEF09005EDE090086BF09005EDE09005ECF02290085EFB
:20609700E0FEEFB506319005EDE0FE9005ECE0FDEEB50501221E9005EDEEF020080122904E
:2060B700085EE0F58212791B75822012791B90085EE0F58202791B90085FE0FEEFB5061037
:2060D7009005EC12071690086AE4F090086BF022BF200122BF090122EFB530012290085D35
:2060F700E0FE6005EFB5060122BF2000403AEF248140359005EDE0FE90086AE0FDEEB50530
:206117000990086AE4F090086BF08F669005ECC00712075AE582D0077006908CFB02454193
:206137003008058F8202791B22AF823009058F8212791BEFB5301A900868E02401F09008A1
:2061570068E0FEBE0103024467EE24FC501C02448BC00712448BD0078F669003AF12075AFF
:20617700E5827006908D1402454122907087E0FF4401F043871080FB907087E0FF54FEF0B8
:2061970043871080FBAF82AE83ADF0FC9006F9EFF0A3EEF0A3EDF0A3ECF0300C259006F9BA
:2061B700E0FCA3E0FDA3E0FEA3E0FF7428C0E07408C0E08C828D838EF0EF12854E158115F6
:2061D70081229006F9E0FCA3E0FDA3E0FEA3E0FF755A0A8C828D838EF0EF027513E5829032
:2061F70006FDF0300C1B9006FDE0FF7E007428C0E07402C0E08F828E8312697215811581C1
:16621700229006FDE0FF7E007403C0E08F828E831280D01581220C
:2089D8006573636170656420696E746F20636F6D6D616E64206D6F6465004552524F522062
:2089F800004F4B20007265675B005D203D2000636F756C64206E6F742077726974652074CB
:208A18006F20666C617368006E6F2076616C696420636F6E66696720666F756E64206F6EC5
:208A380020666C61736800696E76616C69642072656769737465722073656C65637465641B
:208A580000696E76616C6964206563686F20706172616D6574657200415853454D20415444
:208A780020436F6D6D616E6420496E7465726661636520302E312E342D3931355F3132307F
:208A980030007772697474656E2062792053616D75656C204272796E65722028737570705D
:208AB8006F727440617873656D2E636F6D29003000310034003931355F3132303000763059
:208AD8002E312E342D31302D67633937386232642D646972747900696E76616C69642069CF
:208AF8006E666F726D6174696F6E206C696E652073656C65637465640063616E6E6F74204D
:208B180077726974652076616C75650072785F6275666665722E7265616420203D20007239
:208B3800785F6275666665722E7772697465203D200074785F6275666665722E7265616467
:208B580020203D200074785F6275666665722E7772697465203D200074785F627566666572
:208B7800725F73656E7420203D2000202D2D2D2000726574727920636F756E74203D2000F2
:208B98007061636B65745F73656E745F636F756E74203D20007061636B65745F72656376A0
:208BB8005F636F756E74203D20006C6F63616C202061646472657373203D200072656D6F37
:208BD80074652061646472657373203D200061646472657373206D61736B2020203D2000B2
:208BF800696C6C6567616C20666C61736820636F6D6D616E6400696C6C6567616C20706F7D
:208C1800776572206D6F64650070656E64696E673A003E2068616E646C65723A2000746997
:208C38006D657220302071756575653A002074696D653A200074696D657220312071756503
:208C580075653A0049453D00204549453D0020453249453D00494E54434847413D00494EB9
:208C780054434847423D00494E54434847433D00444952413D00444952423D00444952431D
:208C98003D005754434647413D005754434647423D005754495251454E3D005744544346AD
:208CB800473D004F534352454144593D00756E6B6E6F776E20636F6D6D616E640000657895
:208CD80070656374696E6720636F6D6D616E6420746F2073746172742077697468202741DE
:208CF800542700636F6D6D616E64206C696E65206275666665722066756C6C0073656E6423
:0D8D1800206275666665722066756C6C00E1
:10930E000D0A08188002000000190000000000007D
:20622D00AE82AF839006FEE4F074022EFCE43FFD74012EFAE43FFB8A828B83E0F98E828F7A
:20624D0083E0F8E9B5000280548E828F83E0F879002CF582E93DF583E0F9B93000403EE985
:20626D0024C640399006FEE075F00AA4F98E828F83C007C006C005C004C003C002C001129E
:20628D000724A882D001D002D003D004D005D006D007E824D0F89006FE29F0809A9006FEA1
:2062AD00E0F582228582418583429006FFE4F074022541FCE43542FD74012541FAE43542FD
:2062CD00FB8A828B83E0F9854182854283E0F8E9B5000302636F854182854283E0F8790001
:2062ED002CF582E93DF583E0F9B930004037E924C640329006FFE0C454F0F885418285424E
:20630D0083C005C004C003C002C000120724AF82D000D002D003D004D005EF24D0FF90061B
:20632D00FF48F0809CB961004038E9249940339006FFE0C454F0FF854182854283C007C0BD
:20634D0005C004C003C002120724AE82D002D003D004D005D00774A92EFE9006FF4FF00231
:20636D0062CE9006FFE0F58222858243858344900700E4F0A3F0A3F0A3F074022543FCE45A
:20638D003544FD74012543F545E43544F546854582854683E0F9854382854483E0F8E9B54C
:2063AD00000302644C854382854483E0F87900E82CF582E93DF583E0F9B930005003026490
:2063CD004CE924C64079C004C005900700E0F566A3E0F567A3E0F568A3E0F56990000AE45F
:2063ED00F5F0C005C004127AF9A882A983AEF0FFD004D005854382854483C007C006C0041A
:20640D00C001C000120724AD82D000D001D004D006D0077C00ED24D0FDEC34FFFC8D02EC70
:20642D00FB3395E0FCFD900700EA28F0EB39A3F0EC3EA3F0ED3FA3F0D005D00402639B90AE
:20644D000700E0FCA3E0FDA3E0FEA3E08C828D838EF022858247858348900704E4F0A3F06A
:20646D00A3F0A3F074022547FCE43548FD74012547F549E43548F54A854982854A83E0F973
:20648D00854782854883E0F8E9B500030265D1854782854883E0F879002CF582E93DF58370
:2064AD00E0F9B930005003026542E924C65003026542C004C005900704E0F8A3E0FDA3E043
:2064CD00FEA3E08E4DC454F0C54DC4C54D654DC54D54F0C54D654DF54EEDC4540F454DF5B9
